:020000040800F2
:1000000000500020F51D0008611D0008631D000858
:10001000651D0008671D0008691D0008000000003C
:100020000000000000000000000000006B1D000840
:100030006D1D0008000000006F1D0008711D000804
:100040003D1E00083D1E00083D1E00083D1E000824
:100050003D1E00083D1E00083D1E00083D1E000814
:100060003D1E00083D1E00083D1E00083D1E000804
:100070003D1E00083D1E00083D1E00083D1E0008F4
:100080003D1E00083D1E00083D1E00083D1E0008E4
:100090003D1E00083D1E00083D1E00083D1E0008D4
:1000A0003D1E00083D1E00083D1E00083D1E0008C4
:1000B0003D1E00083D1E00083D1E00083D1E0008B4
:1000C0003D1E00083D1E00083D1E00083D1E0008A4
:1000D0003D1E00083D1E00083D1E00083D1E000894
:1000E0003D1E00083D1E00083D1E000800000000E7
:1000F0000000000000000000000000000000000000
:0C01000000000000000000005FF808F1A3
:1001100010B5054C237833B9044B13B10448AFF341
:1001200000800123237010BD70000020000000003B
:100130004027000808B5034B1BB103490348AFF340
:10014000008008BD00000000740000204027000867
:10015000034613F8012B002AFBD1181A0138704707
:1001600038B50E4B054618784FF47A73B3FBF0F3AD
:100170000B4A1068B0FBF3F000F090F8044658B951
:100180000F2D09D8024629464FF0FF3000F054F8F1
:100190002046044B1D6038BD0120FCE70000002014
:1001A0000800002004000020074A08B51368032057
:1001B00043F01003136000F02DF80020FFF7D0FF8C
:1001C00001F036FD002008BD00200240034A044B28
:1001D00011681B780B441360704700BFA00000201B
:1001E00000000020014B1868704700BFA0000020ED
:1001F00038B50446FFF7F6FF0546631C1EBF044BE7
:100200001B78E418FFF7EEFF431BA342FAD338BD77
:100210000000002007490302CA6803F4E06322F4E7
:10022000E0621204120C134343F0BF6343F4003343
:10023000CB60704700ED00E0164B30B5DC68C4F3CE
:100240000224C4F10703251D042B28BF0423062D17
:100250004FF0FF3598BF002405FA03F388BF033C35
:1002600021EA0303A34005FA04F422EA0402002869
:1002700043EA0203ACBF00F16040074A4FEA0313B0
:10028000DBB2ABBF00F5614000F00F0080F8003337
:10029000135430BD00ED00E014ED00E00138B0F182
:1002A000807F0AD2F021064B064A586082F823105C
:1002B0000020072298601A6070470120704700BF35
:1002C00010E000E000ED00E02DE9F74F00221646B7
:1002D000644BDFF8A0C1DFF8A0E10D6835FA06F441
:1002E00002D103B0BDE8F08F4FF0010808FA06F81C
:1002F00005EA080438EA05057CD14D68032D07D8C6
:10030000013D022D00F28880DFE805F0969BA100F8
:10031000122D00F099806FD8112D00F08F80FF2CE6
:1003200098BF82464FF00F0988BF00F1040A4FEAD8
:100330008605DAF8008088BF203D09FA05FB28EA27
:100340000B0802FA05F548EA0505CAF80050D1F88D
:1003500004A01AF0805F4DD0434F26F00308BD691A
:1003600008F1804845F00105BD61BD6908F5803898
:1003700005F00105019506F0030B019D4FEA8B0B7B
:10038000D8F8085009FA0BF925EA0909374DA842AF
:1003900061D005F58065A8425FD005F58065A8426B
:1003A0005DD005F58065A8420CBF0325042505FA3C
:1003B0000BF545EA0905C8F808501D681AF4803F96
:1003C00014BF2543A5431D605D681AF4003F14BFA8
:1003D0002543A5435D609D681AF4801F14BF254323
:1003E000A5439D60DD681AF4001F14BF2C4325EA65
:1003F0000404DC60013670E71D4FBD420CD017D8F5
:10040000DFF878904D4507D009F570294D4503D0A8
:10041000A9F580194D4582D18A68D2B1012A08BF59
:10042000C0F810804FF0080218BFC0F8148076E7BB
:100430006545F1D07545EEE7CA6870E7CA680432D1
:100440006DE7CA6808326AE7CA680C3267E70022BB
:1004500065E7042263E70025A9E70125A7E7022550
:10046000A5E700BF00040140001002400008014061
:1004700000002210000031100000321000001210A5
:100480000AB1016170470904FBE7C3680B4214BF5E
:1004900041610161704700002DE9F341054638B321
:1004A0000368DB0710D42B689F075ED42B681907FD
:1004B00000F195802B685A0700F1BF80E869002899
:1004C00040F02C81002029E08F4C636803F00C037E
:1004D000042B07D0636803F00C03082B0AD1636870
:1004E000DE0307D523689C03DDD56B68002BDAD1CA
:1004F000012013E06B68B3F5803F12D1236843F409
:1005000080332360FFF76EFE064623689803CAD443
:10051000FFF768FE801B6428F7D9032002B0BDE80E
:10052000F0819BB9236823F480332360236823F48C
:1005300080232360FFF756FE064623689903B2D551
:10054000FFF750FE801B6428F7D9E6E7B3F5A02F2C
:10055000236803D143F480232360CFE723F480335F
:100560002360236823F48023CBE7674C636813F090
:100570000C0F07D0636803F00C03082B10D16368DD
:10058000DA030DD423689B0702D52B69012BAFD169
:1005900023686A6923F0F80343EAC203236085E70E
:1005A0002A695A4B6AB101221A60FFF71BFE064600
:1005B00023689F07ECD4FFF715FE801B0228F7D9AC
:1005C000ABE71A60FFF70EFE0646236898077FF533
:1005D0006DAFFFF707FE801B0228F6D99DE7AA69D9
:1005E000494E4B4BDAB101221A60FFF7FBFD04467E
:1005F000736A9B070DD54FF4FA52464B1B68B3FB49
:10060000F2F3019300BF019B5A1E0192002BF9D116
:1006100050E7FFF7E7FD001B0228E9D97DE71A60E4
:10062000FFF7E0FD0446736A9F077FF543AFFFF7CE
:10063000D9FD001B0228F6D96FE7334CE369D800D7
:1006400024D40127E36943F08053E361E36903F0B5
:1006500080530093009B304E3368D90518D5EB6862
:10066000012B26D1236A43F001032362FFF7BAFD71
:1006700041F288380646236A9B073FD5002F3FF496
:100680001DAFE36923F08053E36117E70027E2E73A
:10069000336843F480733360FFF7A4FD804633680A
:1006A000DA05DCD4FFF79EFDA0EB08006428F6D93C
:1006B00033E7ABB9236A41F2883823F001032362A0
:1006C000236A23F004032362FFF78CFD0646236AA6
:1006D0009807D3D5FFF786FD801B4045F7D91CE767
:1006E000052B236A03D143F004032362BAE723F006
:1006F00001032362236A23F00403B6E7FFF772FDC8
:10070000801B4045B7D908E7001002400000424274
:100710008004424208000020007000402A4B5A68C2
:100720001C4602F00C02082A3DD00023274E022866
:1007300033602BD1FFF756FD0746236899011FD47C
:100740002B6AB3F5803F05D16268A96822F40032B4
:100750000A436260696A62680B4322F474121343AD
:10076000636001233360FFF73DFD054623689A016E
:100770003FF5A8AEFFF736FD401B0228F6D9CCE6C0
:10078000FFF730FDC01B0228D7D9C6E6FFF72AFDC8
:10079000054623689B017FF595AEFFF723FD401BBF
:1007A0000228F6D9B9E601283FF4B8AE5B682A6A98
:1007B00003F4803191427FF49BAE6A6A03F47013B4
:1007C00093423FF47FAE93E6001002406000424245
:1007D00030B5184B87B002AC03F1100522461868FB
:1007E0005968083303C2AB421446F7D140F20123E3
:1007F0001149ADF804304B6803F00C02082A17D1F8
:10080000C3F3834206A80244DB0312F8102C0CD574
:100810004B680A48C3F34043504306AA134413F8F5
:10082000143CB0FBF3F007B030BD05485043FAE785
:100830000248F8E7582700080010024000127A002A
:1008400000093D002DE9F0410D46044610B9012094
:10085000BDE8F081444A136803F007038B4228D3B4
:1008600021688E0730D4CA0743D43F4A136803F087
:100870000703AB4265D822683C4D12F0040F6CD1DF
:10088000130706D56B68226923F4605343EAC20359
:100890006B60FFF79DFF6B68354AC3F30313D35CAE
:1008A000D840344B1860344B1868FFF759FC0020CF
:1008B000CEE7136823F007030B431360136803F0BC
:1008C00007038B42C3D1CBE7284B11F0040F1EBFA7
:1008D0005A6842F4E0625A60080742BF5A6842F41C
:1008E00060525A605A68A06822F0F00202435A60CF
:1008F000B9E762681D4E012A33681AD113F4003F2C
:10090000A5D0736841F2883823F003031343736062
:10091000FFF768FC07467368626803F00C03B3EBEB
:10092000820FA2D0FFF75EFCC01B4045F3D9032025
:100930008EE7022A02D113F0007FE1E713F0020FE5
:10094000DEE7136823F007032B431360136803F0FB
:100950000703AB427FF47BAF8DE76B68E16823F45C
:10096000E0630B436B608BE7002002400010024005
:10097000DD2800080800002004000020044B054A80
:100980005B68C3F30223D35C034A1068D840704706
:1009900000100240ED28000808000020044B054A22
:1009A0005B68C3F3C223D35C034A1068D840704726
:1009B00000100240ED28000808000020F8B50446A9
:1009C0000E4615461F462268936836EA030301D097
:1009D00000202DE06B1CF7D0FFF704FCC01B854204
:1009E000F1D823685A6822F0E0025A606268B2F5D2
:1009F000827F0AD1A268B2F5004F02D0B2F5806FB3
:100A000003D11A6822F040021A60A26AB2F5005FB0
:100A100007D11A6822F400521A601A6842F4005290
:100A20001A60012384F851300023032084F85030E9
:100A3000F8BD38B5134642680446B2F5827F16D138
:100A40008268B2F5004F02D0B2F5806F0FD12568F1
:100A5000B2F5806F286820F04000286007D10A4670
:100A600001212046FFF7AAFF20B9002038BD0A4621
:100A70008021F6E7636D032043F020036365F5E70B
:100A800010B513460A4680210446FFF797FF20B1B0
:100A90000320636D43F02003636510BD10B5044669
:100AA000002834D00023836290F8513003F0FF0215
:100AB0001BB980F8502001F0DDF80223226884F889
:100AC00051301368A16923F040031360D4E9013069
:100AD0000343E06803432069034360690343E0691B
:100AE0000343206A0343A06A034301F40070090C26
:100AF000034301F0040113605160D369002023F423
:100B00000063D3610123606584F8513010BD01207A
:100B1000FCE72DE9F3411E4690F850300446012BC6
:100B20000D46174600F09880012380F85030FFF7FB
:100B300059FB94F851308046012BD8B240F08A809E
:100B4000002D5BD0002F59D0032384F851300023AF
:100B5000A2686365C4E91033E786A363E387A387CC
:100B60002368B2F5004F08BF1A68256308BF42F436
:100B70008042A78608BF1A601A68E16852065EBF05
:100B80001A6842F040021A60B1F5006F62683ED107
:100B90000AB1012F07D135F8022BDA602563E38E05
:100BA000013B9BB2E386E38E9BB2A3B9424631463A
:100BB0002046FFF765FF002849D1A36833B90193A8
:100BC0002368DA6801929B680193019B606D00388D
:100BD00018BF012012E022689368980705D5236B9F
:100BE00033F8021BD1602363D9E7FFF7FBFAA0EBD0
:100BF0000800B042D7D3711CD5D00320012384F85C
:100C00005130002384F8503002B0BDE8F0810AB1C1
:100C1000012F08D12A781A73236B01332363E38EE3
:100C2000013B9BB2E386E38E9BB2002BBED02368D0
:100C30009A68920702D5226B1278ECE7FFF7D2FA96
:100C4000A0EB0800B042EED3731CECD0D5E7202314
:100C50006365B2E70220D1E70220D5E72DE9F7432B
:100C60001E4690F850300446012B0D469146DDF8A3
:100C7000288000F0E080012380F85030FFF7B2FABE
:100C800094F851300746012B6268D9B20AD0B2F508
:100C9000827F40F0CE80A368002B40F0CA800429F8
:100CA00040F0C780002D3FD0B9F1000F3CD0002E9E
:100CB0003AD094F85130C4F83890042B1CBF052367
:100CC00084F8513000236365C4E910332368E68754
:100CD000E6861968A687490658BF1968256358BF74
:100CE00041F04001A68658BF1960E168B1F5006F78
:100CF00051D10AB1012E07D135F8022BDA60E38E0B
:100D00002563013B9BB2E3860125E38E9BB26BB961
:100D1000E38F9BB253B93A4641462046FFF7B0FEF7
:100D200000287BD02023636501202BE021688B689D
:100D30009A070DD5E38E9BB253B14DB10025236BBD
:100D400033F8022BCA602363E38E013B9BB2E38638
:100D50008A6812F001020CD0E38F9BB24BB11546AA
:100D6000C968A36B23F8021BA363E38F013B9BB20B
:100D7000E387FFF737FAC01B4045C6D3B8F1FF3F02
:100D8000C3D00320012384F85130002384F850306D
:100D900003B0BDE8F0830AB1012E08D12A781A7396
:100DA000236B01332363E38E013B9BB2E386012572
:100DB000E38E9BB21BB9E38F9BB2002BABD02268B2
:100DC00093689B070ED5E38E9BB25BB155B10025AE
:100DD000236B1B781373236B01332363E38E013B77
:100DE0009BB2E3862268916811F001010DD0E38F78
:100DF0009BB253B10D46D268A36B1A70A36B01333B
:100E0000A363E38F013B9BB2E387FFF7EBF9C01BC2
:100E10004045CDD3B8F1FF3FCAD0B2E7A368002B5D
:100E2000B0D123680190DA6801929B680193019B1D
:100E3000A8E70220A6E70220AAE72DE9F3411D4614
:100E400043680446B3F5827F884616460CD1836812
:100E500053B9042380F85130134600950A46FFF732
:100E6000FDFE02B0BDE8F08194F85030012B7BD03C
:100E7000012384F85030FFF7B5F994F85130074654
:100E8000012BD8B26ED1B8F1000F59D0002E57D037
:100E9000042384F851300023A2686365C4E9103349
:100EA000E6872363E386A3862368B2F5004F08BF75
:100EB0001A68A68708BF22F48042C4F8388008BFA9
:100EC0001A601A6856065EBF1A6842F040021A603D
:100ED000E368F3B1E38F9BB2FBB123689A68D20752
:100EE00035D5DA68A36B23F8022BA363E38F013BAC
:100EF0009BB2E387EEE723689A68D00718D51B7B7F
:100F0000A26B1370A36B0133A363E38F013B9BB20E
:100F1000E387E38F9BB2002BEDD13A46294620466A
:100F2000FFF787FDD8B9606D003818BF012007E0D2
:100F3000FFF758F9C01BA842EBD3691CE9D0032086
:100F4000012384F85130002384F8503089E7FFF7FB
:100F500049F9C01BA842BDD36B1CBBD0EFE72023CF
:100F60006365E0E70220EBE702207AE738B5054643
:100F70000368C1681A69192422F440520A431A61AD
:100F800082680069D9680243686921F4B05121F090
:100F90000C0102430A43DA605A69A96922F44072DB
:100FA0000A435A610D4A934214D1FFF7F7FC4443B8
:100FB0006B6864229B00B4FBF3F4B4FBF2F102FB18
:100FC00011431B013233B3FBF2F3286803EB011327
:100FD000836038BDFFF7D2FCE9E700BF003801406D
:100FE000F8B504460E4617461D462268136836EAD1
:100FF000030301D1002014E06B1CF7D095B92368DE
:101000000320DA6822F4D072DA605A6922F0010211
:101010005A61202384F8393084F83A30002384F868
:101020003830F8BDFFF7DEF8C01B8542DDD2E6E7B9
:1010300010B5044640B390F8393003F0FF021BB9F5
:1010400080F8382000F050FE2423226884F83930DC
:10105000D368204623F40053D360FFF787FF23684B
:1010600000201A6922F490421A615A6922F02A0279
:101070005A61DA6842F40052DA602023E06384F8AF
:10108000393084F83A3010BD0120FCE72DE9F041F9
:101090001F4690F839300446202B0D4690464ED11D
:1010A00000294AD0002A48D090F83830012B46D089
:1010B000012380F838300023C363212380F83930BE
:1010C000FFF790F80646A4F82480A4F82680E38C65
:1010D0009BB263B93B46324640212046FFF780FF72
:1010E000A0B9202384F8380084F839300FE0E38C6D
:1010F0003246013B9BB2E384A3688021B3F5805F55
:1011000020463B4610D1FFF76BFF10B10320BDE82E
:10111000F0812B882268C3F30803536023690BB95D
:101120000235D4E70135D2E7FFF75AFF0028EDD1A9
:10113000236815F8012B5A60C9E70120E7E7022070
:10114000E5E730B591B01022002109A800F0B0FE0B
:101150000021142201A800F0ABFE022401224FF46A
:1011600080330025CDE90623CDE90D434FF4E0138C
:1011700006A80A920F930895FFF78EF90F23CDE981
:1011800001344FF48063214601A8CDE9043503956D
:10119000FFF758FB11B030BD2DE9F041A8B0FFF7C3
:1011A00003F8FFF7CEFF1022002118A800F080FE00
:1011B000A94B4FF400519A69A84842F010029A6175
:1011C0009A69002402F010020592059A9A69012793
:1011D00042F020029A619A694FF0020802F0200260
:1011E0000692069A9A69182542F004029A619B6950
:1011F000002203F004030793079BFFF741F9002245
:1012000018219748FFF73CF94FF40053934818A969
:10121000CDE91837CDE91A48FFF756F80422914B6B
:101220008F4818A9CDE918231A94FFF74DF88C4878
:1012300018A9CDE91857CDE91A48FFF745F84FF43A
:101240008273894889490C26C0E900134FF4007362
:10125000C0E906350A23864DC0E90244C0E90444CA
:10126000C0E908448462C362FFF718FC814B8248DE
:10127000C5E90244C5E900032846C5E905642C61B7
:10128000EC61FFF7D5FE00F08DF900F0B5FA2146CC
:101290003C2209A8089400F00BFE4021774B784AC5
:1012A00008A800F00DFE08A8FEF752FF4FF47A736D
:1012B00082B208A92846FFF7E9FE00F021FC6F4A38
:1012C000704B0138C0B2FD2898BF134640216E4ACA
:1012D00008A800F0F5FD08A8FEF73AFF08A982B2B9
:1012E0004FF47A732846FFF7D1FE384600F0C4FB6E
:1012F00000F082FB404600F0E1FB204600F0C2FB1C
:10130000404600F06EFC052000F069FA052000F070
:10131000FDFA4FA3D3E90023384600F0BBFA00F0F2
:1013200021FB00F059FA40210346584A08A800F072
:10133000C7FD08A8FEF70CFF4FF47A7382B208A924
:101340002846FFF7A3FE00F0B2FB40210346504AB7
:10135000044608A800F0B4FD08A8FEF7F9FE4FF413
:101360007A7382B208A92846FFF790FE002C40F05D
:10137000DE804FF47A73324646492846FFF786FEF0
:1013800000F031FA40210346434A009008A800F0DB
:1013900097FD08A8FEF7DCFE4FF47A7382B208A925
:1013A0003348FFF773FE00F00DFC402103463B4A33
:1013B000044608A800F084FD08A8FEF7C9FE4FF413
:1013C0007A7382B208A92A48FFF760FE022C4FF414
:1013D0007A7340F0C2800D2231492548FFF756FE4E
:1013E00000F004FA402103462E4A08A800F068FDE8
:1013F00008A8FEF7ADFE4FF47A7382B208A91C4824
:10140000FFF744FE00F000FC40210346264A044654
:1014100008A800F055FD08A8FEF79AFE4FF47A736D
:1014200082B208A91248FFF731FE002C40F09C80E0
:101430004FF47A7312221D490D48FFF727FE01224F
:101440001146104600F0F6F9044E194D084C31E0F3
:10145000ABF0F0E8E800000000100240001001408E
:101460000008014000002110E4000020003001408D
:10147000A400002040420F00003801406D27000802
:1014800070270008692700087F27000889270008BF
:101490009D270008B2270008E72700080228000857
:1014A000182800083E28000852280008692800086B
:1014B000952800084022002118A800F0F9FC01201E
:1014C0006F2302220DF112018DF81100ADF81230D8
:1014D00000F0ACFA0DF1110000F0C1F90028E9D0DC
:1014E00030464FF40051FEF7D0FF18A8202100F03D
:1014F000C7F9BDF968302A460393BDF966308021EB
:101500000293BDF9643008A80193BDF962300093DD
:10151000BDF9603000F0D4FC08A8FEF719FE4FF4C6
:101520007A7382B208A92046FFF7B0FDC2E7012C0A
:1015300004D14FF47A73324613491EE7022C04D1CA
:101540004FF47A730D22114917E7032C7FF418AF7B
:101550004FF47A7332460E490FE7012C4FF00B021D
:101560000CBF0C490C4938E7012C04D14FF47A73B5
:101570000B220A4960E7022C7FF461AF4FF47A73C3
:101580000C22074958E700BFBF270008CC270008F6
:10159000DA27000826280008322800087C280008DE
:1015A00088280008054A136843F080731360044AD2
:1015B000136843F001031360704700BFFCED00E0C7
:1015C000001000E0064B074A1B68B3FBF2F3002251
:1015D0005843054B5A605A688242FCD3704700BF9B
:1015E0000800002040420F00001000E008B502464D
:1015F00010210448FEF744FFBDE808400520FFF72E
:10160000E1BF00BF00080140024608210148FEF783
:1016100037BF00BF0008014030B500F01F0085B0A3
:101620004FF47A758DF80E0000200E4C8DF80F00E7
:10163000FFF7DCFF0DF10F020DF10E010123204633
:101640000095FFF70BFB0123FF210DF10F02204650
:101650000095FFF703FB0120FFF7C8FF9DF80F007F
:1016600005B030BDE40000200346F0B5002064273B
:101670000C461546104E03F01F0385B043F02003BF
:101680008DF80E008DF80F30FFF7B0FF0DF10E0250
:101690000DF10F01012330460097FFF7DFFA3B46BB
:1016A0002A4621463046FFF734FA0120FFF79EFF15
:1016B0009DF80E0005B0F0BDE400002003460020B8
:1016C00010B503F01F0386B043F020038DF80F1010
:1016D0008DF816008DF81730FFF788FF64230C4C47
:1016E00000930DF116020DF1170101232046FFF7BB
:1016F000B5FA4FF47A7301220DF10F012046FFF77E
:1017000008FA0120FFF772FF9DF8160006B010BD21
:10171000E400002073B51B4B06461C781A4BA1420F
:1017200028BF21461B780D4603BB641AE4B261232F
:1017300000208DF80630FFF759FF642301220DF1D8
:1017400006011248FFF7E5F92A46314664230F489F
:10175000FFF773FB00250D4E013CE4B2FF2C07D1CF
:101760000120FFF743FF002002B070BD0024DEE738
:101770006423012230460DF107018DF80750FFF771
:101780005CFBE9E78D0000203C010020E400002024
:101790007FB58DF80F0000208DF81700FFF726FFAA
:1017A0004FF47A730DF1170200930DF10F0101232D
:1017B0000548FFF753FA0120FFF718FF9DF81700BF
:1017C00007B05DF804FB00BFE4000020E220FFF753
:1017D000DFBFE120FFF7DCBFFF20FFF7D9BF0146E5
:1017E0000520FFF76BBF0520FFF716BF014B1878E8
:1017F000704700BF8D00002008B50320FFF70CFFE5
:101800000138C0B202288CBF0020012008BD002092
:1018100008B5FFF701FF014610F0020009D141F0C1
:101820000201C9B2FFF74AFFBDE808400520FEF7F4
:10183000DFBC08BD70B51446064600200D46FFF714
:10184000EBFEA40144EA461444EA051120F07000BE
:101850000143C9B20020BDE87040FFF72FBF10B5AB
:1018600004461720FFF7D8FEC30707D424B1FFF7BB
:10187000B3FFC0F342002070012000E0002010BD43
:1018800008B5FFF747FFBDE8084070210720FFF7C4
:1018900015BF000013B50446CDE9002300BB154B6E
:1018A00069461A78144800F0F5FA6946114B1A781F
:1018B000124B185DFFF7D8FE114B1978114B185DCC
:1018C000FFF7FCFE0220FFF7A7FE01210E4B1B5D78
:1018D00099400143C9B20220FFF7F0FE02B010BDEB
:1018E0000628FBD8054B012C185CDED00122694686
:1018F000E0E700BF8C0000208E000020D128000807
:101900008D000020CB280008D7280008811E11F088
:10191000FF0138B5084D08D001F00304214603202B
:101920000234FFF7CBFE2C7038BD0320FFF7C6FE54
:1019300002232B70F8E700BF8C00002010B504468E
:101940000220FFF769FE0121054B1B5DBDE8104039
:10195000994020EA0101C9B20220FFF7AFBE00BFE3
:10196000D728000808B5FFF752FF0020FFF754FE04
:1019700040F00101C9B20020FFF7A0FE702107204E
:10198000FFF79CFE0120FFF73FFE0A49087868B187
:10199000094B0A201A78FFF767FE1D20FFF73CFE6F
:1019A000830706D5BDE80840FFF713BFFFF7C6FF62
:1019B000F3E708BD8E0000208C000020502313B5F3
:1019C0000C4C00208DF80730FFF710FE0DF10701D9
:1019D0004FF47A7301222046FFF79BF84FF47A7395
:1019E000012273212046FFF794F80120FFF7FEFD46
:1019F00002B010BDE400002008B51D20FFF70CFE6A
:101A000040F00601C9B21D20FFF758FE1C20FFF769
:101A100003FE40F00301C9B21C20FFF74FFE012274
:101A2000014B1A7008BD00BF3C01002073B515467C
:101A30000C4600F007000F4E60F057008DF80700CD
:101A40000020FFF7D3FD0DF107014FF47A73012257
:101A50003046FFF75EF8202D2A464FF47A7328BFF0
:101A6000202221463046FFF754F80120FFF7BEFD43
:101A700002B070BDE4000020014600B13F2101200A
:101A8000FFF71CBE10B504460620FFF7C5FD032C6A
:101A90008EBF07246400013400F0F80198BF04F001
:101AA000FF0421430620BDE81040FFF707BE08B53C
:101AB0000620FFF7B1FDC0F3410008BD38B505466B
:101AC0000620FFF7A9FD022D0C4B00F0D7040ED124
:101AD0009B2244F02004214606201A70FFF7EEFDF9
:101AE0000620FFF799FD231A5842584138BD012DB1
:101AF00012BF5522412244F00804ECE79300002075
:101B00002022F8B505270024294B2A4E1A702A4BAB
:101B10002A4D1F702A4B20461C7034702C70FFF722
:101B200073FD0120FFF762FD3846FEF761FB0C21D3
:101B30002046FFF7C3FD5F210420FFF7BFFD032010
:101B4000FFF7A0FF0220FFF7B9FF08B101233370B0
:101B50000620FFF761FD002604460020FFF7AEFFD8
:101B6000FFF72CFF00211D20FFF7A8FD00211C20FE
:101B7000FFF7A4FD702107202E70FFF79FFD4C207A
:101B8000FFF72DFEFFF722FEFFF723FEFFF73FFED4
:101B90003046FFF741FD00F0FE013046FFF78EFDB5
:101BA000601EC0B2FD288CBF00200120F8BD00BF20
:101BB0008D0000203D0100208C0000203C01002011
:101BC0008E000020062008B5FFF726FD00F0280053
:101BD000202804D0A0F108035842584108BD022033
:101BE000FCE710B504460020FFF716FD00F0F301F6
:101BF0002CB1012C0CBF41F0080141F00C01002078
:101C0000BDE81040FFF75ABD10B50020FFF704FDF6
:101C100004460120FFF700FD04F00803034313F01E
:101C2000FF0004D014F0040F14BF0220012010BDE7
:101C30000E4B82B09A6942F001029A619A6902F0F1
:101C400001020092009ADA6942F08052DA61DB699F
:101C5000074A03F080530193019B536823F0E0632C
:101C600043F00073536002B0704700BF00100240A1
:101C70000000014010B5044686B01022002102A8E1
:101C800000F016F92268164B9A4226D103F56043FC
:101C90009A69144842F480529A619A6902A902F43E
:101CA00080520092009A9A6942F004029A619B69FC
:101CB000A02203F004030193019B0223CDE9022338
:101CC00003230593FEF700FB402100230548CDE9DF
:101CD000021302A90493FEF7F7FA06B010BD00BF85
:101CE000003001400008014010B5044686B01022C3
:101CF000002102A800F0DCF82268174B9A4228D194
:101D000003F558439A69154842F480429A619A69EA
:101D100002A902F480420092009A9A6942F00402F9
:101D20009A619B694FF4007203F004030193019BD5
:101D30000223CDE9022303230593FEF7C5FA4FF4EE
:101D4000806100230548CDE9021302A90493FEF740
:101D5000BBFA06B010BD00BF0038014000080140CA
:101D60007047FEE7FEE7FEE7FEE770477047704703
:101D7000FEF72CBA08B50A4B0246196809B9094999
:101D800019606946186802448A4206D900F058F87A
:101D90000C2303604FF0FF3008BD1A60FCE700BF62
:101DA00094000020500100200F4B1A6842F00102FD
:101DB0001A6059680D4A0A405A601A6822F0847203
:101DC00022F480321A601A6822F480221A605A685B
:101DD00022F4FE025A604FF41F029A604FF0006234
:101DE000034B9A60704700BF001002400000FFF8EC
:101DF00000ED00E0002103E00B4B5B584350043141
:101E00000A480B4B42189A42F6D30A4A02E00023D2
:101E100042F8043B084B9A42F9D3FFF7C5FF00F0A4
:101E200015F8FFF7B9F970473029000800000020C5
:101E3000700000207000002050010020FEE700002C
:101E4000014B1868704700BF0C00002070B50026D9
:101E50000C4D0D4C641BA410A64209D100F070FC7F
:101E600000260A4D0A4C641BA410A64205D170BD81
:101E700055F8043B98470136EEE755F8043B984780
:101E80000136F2E728290008282900082829000837
:101E90002C2900080A44914200F1FF3300D1704719
:101EA00010B511F8014B914203F8014FF9D110BD63
:101EB00003460244934200D1704703F8011BF9E73F
:101EC0000CB430B5174B0C1E1D689DB008DA8B237F
:101ED0004FF0FF302B601DB0BDE8304002B07047BE
:101EE0004FF40273ADF814300CBF234604F1FF33F6
:101EF000049307934FF6FF7302900690ADF81630E7
:101F0000284621AB209A02A9019300F069F8431CEE
:101F1000BCBF8B232B60002CDDD00022029B1A70EB
:101F2000D9E700BF0C0000202DE9F0478E688246FB
:101F30009E420C4690461F4638D88A8912F4906F0C
:101F400032D0256809690133A5EB010965694B4465
:101F500005EB450505EBD5756D109D4238BF1D4657
:101F6000530531D5294600F045FB064650B90C23F0
:101F70004FF0FF30CAF80030A38943F04003A3813B
:101F8000BDE8F0874A462169FFF784FFA38923F45F
:101F9000906343F08003A38126614E4426603E4651
:101FA0006561A5EB0905A560BE4200D93E463246F3
:101FB0004146206800F0B8FAA36822689B1B3244AF
:101FC0000020A3602260DBE72A4600F06DFB064696
:101FD0000028E1D15046216900F0C0FAC7E70000AF
:101FE0002DE9F04F98468B8907461B060D4614468F
:101FF0009DB00ED50B6963B9402100F0FBFA286053
:10200000286120B90C233B604FF0FF30D1E0402322
:102010006B610023099320238DF8293030234FF082
:102020000109CDF80C80DFF8A4818DF82A30234611
:102030009A4613F8012B0AB1252AF9D1BAEB040B01
:102040000BD05B46224629463846FFF76DFF01302C
:1020500000F0AA80099A5A4409929AF80030002B9D
:1020600000F0A28000234FF0FF32CDE905230AF1F2
:10207000010A049307938DF853301A9354460522AE
:1020800014F8011B514800F041FA049AD8B9D0065F
:1020900044BF20238DF85330110744BF2B238DF804
:1020A00053309AF800302A2B15D0544600204FF0B8
:1020B0000A0C079A214611F8013B303B092B4ED9F7
:1020C000B0B1079214E0A0EB080309FA03F313433D
:1020D000A2460493D2E7039B191D1B680391002BB2
:1020E000BBBF5B4242F0020207930793B8BF049262
:1020F00023782E2B0CD163782A2B35D1039B023405
:102100001A1D1B680392002BB8BF4FF0FF330593D5
:10211000DFF8C8A003225046217800F0F7F940B15B
:102120004023A0EB0A0003FA00F0049B01340343B0
:10213000049314F8011B062225488DF8281000F09E
:10214000E5F9002838D0234B1BBB039B073323F052
:10215000070308330393099B3344099367E70C464D
:1021600001200CFB0232A5E700234FF00A0C1946B0
:1021700001340593204610F8012B303A092A03D97F
:10218000002BC5D00591C3E7044601230CFB0121B8
:10219000F0E703AB00932A4638460F4B04A9AFF390
:1021A0000080421C0646D6D1AB895B063FF52CAFBA
:1021B00009981DB0BDE8F08F03AB00932A4638465E
:1021C000054B04A900F07CF8EBE700BFF5280008F8
:1021D000FF28000800000000291F0008FB28000855
:1021E0002DE9F047164699468A680B6907469342DF
:1021F000B8BF1346336091F843200C46DDF82080C9
:102200000AB1013333602368990642BF3368023351
:102210003360256815F0060506D104F1190AE36854
:1022200032689B1AAB4228DC94F84320131E2268C4
:1022300018BF012392062DD44946384604F14302C3
:10224000C047013020D02368E56803F00603042B63
:1022500018BF002532684FF00006A36808BFAD1A0A
:10226000226908BF25EAE5759342C4BF9B1AED18A1
:102270001A34B5421AD1002008E0012352464946DB
:102280003846C047013003D14FF0FF30BDE8F0873A
:102290000135C4E73020E11881F843005A1C94F856
:1022A00045102244023382F84310C5E70123224639
:1022B00049463846C0470130E6D00136D9E700002C
:1022C0002DE9FF470C46277E9146782F80469A4697
:1022D0000C9904F1430207D8622F0AD8002F00F0AE
:1022E000D980582F00F0A48004F1420684F842708F
:1022F0003AE0A7F16303152BF6D801A050F823F0BC
:10230000592300086D230008E9220008E92200088B
:10231000E9220008E92200086D230008E9220008EC
:10232000E9220008E9220008E92200087B240008CD
:102330009D2300085D240008E9220008E922000826
:102340009D240008E92200089D230008E9220008D6
:10235000E9220008652400080B6804F142061A1DF2
:102360001B680A6084F842300123A4E025680868ED
:102370002E0600F104030AD505680B60002D03DA70
:102380002D236D4284F843300A235E4819E015F08E
:10239000400F05680B6018BF2DB2EFE70B6825688A
:1023A000181D0860280601D51D6802E06906FBD5E6
:1023B0001D886F2F0CBF08230A235248002184F880
:1023C00043106668002EA8BF2168A660A4BF21F054
:1023D000040121600DB9002E4DD01646B5FBF3F176
:1023E00003FB1157C75D06F8017D2F46BB420D4622
:1023F000F4D9082B0BD12368DF0708D5236961685E
:102400009942DEBF302306F8013C06F1FF36921BED
:1024100022614B4621464046CDF800A003AAFFF7B3
:10242000DFFE01304CD14FF0FF3004B0BDE8F08743
:10243000344884F845700E68236856F8045B1F061C
:102440000E6014D5D90744BF43F0200323601DB9A3
:10245000236823F0200323601023AFE7236843F0B1
:10246000200323607823284884F84530E3E75E069C
:1024700048BFADB2E6E71646BBE70B6826681D1DF0
:1024800060690D6035061B6801D5186002E07106B1
:10249000FBD51880002316462361BAE70B681A1D86
:1024A0000A601E6800213046626800F02FF808B10B
:1024B000801B606063682361002384F84330A8E7D1
:1024C0003246494640462369D0470130ABD02368A5
:1024D0009B0713D4E068039B9842B8BF1846A4E753
:1024E0000123324649464046D04701309BD0013552
:1024F000E36803995B1AAB42F2DCEBE7002504F1D9
:102500001906F5E70629000817290008034610B543
:10251000C9B202449342184601D1002003E0047876
:1025200001338C42F6D110BD884210B501EB020494
:1025300002D98442234607D8431EA14208D011F88D
:10254000012B03F8012FF8E7014602448A4200D12B
:1025500010BD13F8014D02F8014DF7E738B50546F7
:10256000002943D051F8043C0C1F002BB8BFE418DD
:1025700000F0D0F81E4A1368104633B96360146047
:102580002846BDE8384000F0CBB8A3420AD92168FC
:102590006218934201BF1A685B6852182260636038
:1025A0000460EDE71A465B680BB1A342FAD91168E3
:1025B0005018A0420BD1206801445018834211608A
:1025C000DED118685B68014411605360D8E702D916
:1025D0000C232B60D4E7206821188B4201BF1968B7
:1025E0005B680918216063605460C9E738BD00BFAB
:1025F00098000020F8B5CD1C25F0030508350C2DFA
:1026000038BF0C25002D064601DBA94203D90C2357
:1026100033600020F8BD00F07DF821490A681446B7
:102620009CB9204F3B6823B92146304600F062F840
:1026300038602946304600F05DF8431C23D10C2356
:102640003046336000F06CF8E3E723685B1B17D477
:102650000B2B03D923601C44256004E06368A2426D
:102660000CBF0B605360304600F05AF804F10B00C9
:10267000231D20F00700C21ACCD01B1AA350C9E7B3
:1026800022466468CCE7C41C24F00304A042E3D0D3
:10269000211A304600F02EF80130DDD1CFE700BF1F
:1026A000980000209C000020F8B5074614460E460E
:1026B00021B91146BDE8F840FFF79CBF22B9FFF7EA
:1026C0004DFF25462846F8BD00F030F8A0420FD255
:1026D00021463846FFF78EFF05460028F2D03146E6
:1026E0002246FFF7D7FB31463846FFF737FFE9E7C9
:1026F0003546E7E738B50023054D044608462B600C
:10270000FFF738FB431C02D12B6803B1236038BDAF
:1027100040010020014800F011B800BF480100202E
:10272000014800F00CB800BF4801002051F8043CFB
:10273000181F002BBCBF0B58C0187047704770475C
:10274000F8B500BFF8BC08BC9E467047F8B500BF9E
:08275000F8BC08BC9E4670476E
:1027580002030405060708090A0B0C0D0E0F1010DA
:10276800004E4F54204F4B00436F6E6E6563746587
:10277800643A2025730A00496E69743A2025730A61
:10278800006765745F7374617475733A20307825D7
:102798003032780A0067657450414C6576656C3A4A
:1027A80020307825303278202000524632345F506D
:1027B800415F4D494E0A00524632345F50415F4CEA
:1027C8004F570A00524632345F50415F48494748E4
:1027D8000A00524632345F50415F4D41580A006743
:1027E80065744368616E6E656C3A203078253032C6
:1027F8007820E284962025640A0067657444617431
:1028080061526174653A2030782530327820200092
:10281800524632345F3235304B4250530A005246EA
:1028280032345F324D4250530A00524632345F31DF
:102838004D4250530A006765745061796C6F61644A
:1028480053697A653A2025640A00676574435243E0
:102858004C656E6774683A203078253032782020CD
:1028680000524632345F4352435F44495341424C1D
:1028780045440A00524632345F4352435F380A00E7
:10288800524632345F4352435F31360A0064617402
:10289800615B305D3D256420646174615B315D3D41
:1028A800256420646174615B325D3D256420646148
:1028B80074615B335D256420646174615B345D25FC
:1028C800640A001112131415160A0B0C0D0E0F00D2
:1028D80001020304050000000000000000010203DB
:1028E80004060708090000000001020304232D3034
:1028F8002B2000686C4C0065666745464700303100
:10290800323334353637383941424344454600304E
:10291800313233343536373839616263646566007D
:04292800350100086D
:04292C00110100088D
:1029300001000000100000000024F400100000203E
:102940000000000000000000000000000000000087
:102950000000000000000000000000000000000077
:102960000000000000000000000000000000000067
:102970000000000000000000000000000000000057
:102980000000000000000000000000000000000047
:102990000000000000000000000000000000000037
:0400000508001DF5DD
:00000001FF
